{
  "contractName": "Destructible",
  "abi": [
    {
      "constant": true,
      "inputs": [],
      "name": "actionThreshold",
      "outputs": [
        {
          "name": "",
          "type": "uint256"
        }
      ],
      "payable": false,
      "stateMutability": "view",
      "type": "function"
    },
    {
      "constant": true,
      "inputs": [
        {
          "name": "addr",
          "type": "address"
        }
      ],
      "name": "addrToKey",
      "outputs": [
        {
          "name": "",
          "type": "bytes32"
        }
      ],
      "payable": false,
      "stateMutability": "pure",
      "type": "function"
    },
    {
      "constant": true,
      "inputs": [],
      "name": "managementThreshold",
      "outputs": [
        {
          "name": "",
          "type": "uint256"
        }
      ],
      "payable": false,
      "stateMutability": "view",
      "type": "function"
    },
    {
      "constant": true,
      "inputs": [],
      "name": "numKeys",
      "outputs": [
        {
          "name": "",
          "type": "uint256"
        }
      ],
      "payable": false,
      "stateMutability": "view",
      "type": "function"
    },
    {
      "constant": false,
      "inputs": [
        {
          "name": "_recipient",
          "type": "address"
        }
      ],
      "name": "destroyAndSend",
      "outputs": [],
      "payable": false,
      "stateMutability": "nonpayable",
      "type": "function"
    }
  ],
  "bytecode": "0x6060604052600160005560018055341561001857600080fd5b61035f806100276000396000f30060606040526004361061006d576000357c0100000000000000000000000000000000000000000000000000000000900463ffffffff16806338f4edd41461007257806363f14c3c1461009b578063aa0a5142146100f0578063c9d24ecc14610119578063f5074f4114610142575b600080fd5b341561007d57600080fd5b61008561017b565b6040518082815260200191505060405180910390f35b34156100a657600080fd5b6100d2600480803573ffffffffffffffffffffffffffffffffffffffff16906020019091905050610181565b60405180826000191660001916815260200191505060405180910390f35b34156100fb57600080fd5b6101036101a4565b6040518082815260200191505060405180910390f35b341561012457600080fd5b61012c6101aa565b6040518082815260200191505060405180910390f35b341561014d57600080fd5b610179600480803573ffffffffffffffffffffffffffffffffffffffff169060200190919050506101b7565b005b60015481565b60008173ffffffffffffffffffffffffffffffffffffffff166001029050919050565b60005481565b6000600280549050905090565b6101bf61021f565b15156101ca57600080fd5b600073ffffffffffffffffffffffffffffffffffffffff168173ffffffffffffffffffffffffffffffffffffffff161415151561020657600080fd5b8073ffffffffffffffffffffffffffffffffffffffff16ff5b60003073ffffffffffffffffffffffffffffffffffffffff163373ffffffffffffffffffffffffffffffffffffffff16141561025e5760019050610295565b600160005414151561026f57600080fd5b61028e61027b33610181565b600160026102989092919063ffffffff16565b9050809150505b90565b60008060008090505b858054905081101561031f57846000191686828154811015156102c057fe5b9060005260206000209060030201600201546000191614801561030157508386828154811015156102ed57fe5b906000526020600020906003020160000154145b15610312578060019250925061032a565b80806001019150506102a1565b600080819150925092505b509350939150505600a165627a7a723058203aa6a90997d980cfdeb9544cf84b44c42851035311630a68715c5726abe8d2e80029",
  "source": "pragma solidity ^0.4.21;\n\nimport \"./KeyBase.sol\";\n\ncontract Destructible is KeyBase {\n    /// @dev Transfers the current balance and terminates the contract\n    function destroyAndSend(address _recipient)\n        onlyManagementOrSelf\n        public\n    {\n        require(_recipient != address(0));\n        selfdestruct(_recipient);\n    }\n}",
  "sourcePath": "/Users/mirceapasoi/src/erc725-735/contracts/Destructible.sol",
  "compiler": {
    "name": "solc",
    "version": "0.4.21+commit.dfe3193c.Emscripten.clang"
  },
  "schemaVersion": "2.0.0",
  "updatedAt": "2018-04-12T01:16:11.621Z"
}