{
  "contractName": "Identity",
  "abi": [
    {
      "constant": true,
      "inputs": [
        {
          "name": "interfaceID",
          "type": "bytes4"
        }
      ],
      "name": "supportsInterface",
      "outputs": [
        {
          "name": "",
          "type": "bool"
        }
      ],
      "payable": false,
      "stateMutability": "view",
      "type": "function"
    },
    {
      "constant": true,
      "inputs": [],
      "name": "ERC165ID",
      "outputs": [
        {
          "name": "",
          "type": "bytes4"
        }
      ],
      "payable": false,
      "stateMutability": "pure",
      "type": "function"
    },
    {
      "constant": true,
      "inputs": [
        {
          "name": "_key",
          "type": "bytes32"
        }
      ],
      "name": "getKeyPurpose",
      "outputs": [
        {
          "name": "purpose",
          "type": "uint256[]"
        }
      ],
      "payable": false,
      "stateMutability": "view",
      "type": "function"
    },
    {
      "constant": true,
      "inputs": [
        {
          "name": "_key",
          "type": "bytes32"
        },
        {
          "name": "_purpose",
          "type": "uint256"
        }
      ],
      "name": "getKey",
      "outputs": [
        {
          "name": "purpose",
          "type": "uint256"
        },
        {
          "name": "keyType",
          "type": "uint256"
        },
        {
          "name": "key",
          "type": "bytes32"
        }
      ],
      "payable": false,
      "stateMutability": "view",
      "type": "function"
    },
    {
      "constant": true,
      "inputs": [
        {
          "name": "issuer",
          "type": "address"
        },
        {
          "name": "claimType",
          "type": "uint256"
        }
      ],
      "name": "getClaimId",
      "outputs": [
        {
          "name": "",
          "type": "bytes32"
        }
      ],
      "payable": false,
      "stateMutability": "pure",
      "type": "function"
    },
    {
      "constant": true,
      "inputs": [
        {
          "name": "subject",
          "type": "address"
        },
        {
          "name": "claimType",
          "type": "uint256"
        },
        {
          "name": "data",
          "type": "bytes"
        }
      ],
      "name": "claimToSign",
      "outputs": [
        {
          "name": "",
          "type": "bytes32"
        }
      ],
      "payable": false,
      "stateMutability": "pure",
      "type": "function"
    },
    {
      "constant": false,
      "inputs": [
        {
          "name": "_key",
          "type": "bytes32"
        },
        {
          "name": "_purpose",
          "type": "uint256"
        },
        {
          "name": "_keyType",
          "type": "uint256"
        }
      ],
      "name": "addKey",
      "outputs": [
        {
          "name": "success",
          "type": "bool"
        }
      ],
      "payable": false,
      "stateMutability": "nonpayable",
      "type": "function"
    },
    {
      "constant": true,
      "inputs": [
        {
          "name": "_claimType",
          "type": "uint256"
        }
      ],
      "name": "getClaimIdsByType",
      "outputs": [
        {
          "name": "claimIds",
          "type": "bytes32[]"
        }
      ],
      "payable": false,
      "stateMutability": "view",
      "type": "function"
    },
    {
      "constant": true,
      "inputs": [],
      "name": "actionThreshold",
      "outputs": [
        {
          "name": "",
          "type": "uint256"
        }
      ],
      "payable": false,
      "stateMutability": "view",
      "type": "function"
    },
    {
      "constant": true,
      "inputs": [
        {
          "name": "signed",
          "type": "bytes32"
        },
        {
          "name": "signature",
          "type": "bytes"
        }
      ],
      "name": "getSignatureAddress",
      "outputs": [
        {
          "name": "",
          "type": "address"
        }
      ],
      "payable": false,
      "stateMutability": "pure",
      "type": "function"
    },
    {
      "constant": false,
      "inputs": [],
      "name": "unpause",
      "outputs": [],
      "payable": false,
      "stateMutability": "nonpayable",
      "type": "function"
    },
    {
      "constant": false,
      "inputs": [
        {
          "name": "_claimId",
          "type": "bytes32"
        }
      ],
      "name": "removeClaim",
      "outputs": [
        {
          "name": "success",
          "type": "bool"
        }
      ],
      "payable": false,
      "stateMutability": "nonpayable",
      "type": "function"
    },
    {
      "constant": false,
      "inputs": [
        {
          "name": "_key",
          "type": "bytes32"
        },
        {
          "name": "_purpose",
          "type": "uint256"
        }
      ],
      "name": "removeKey",
      "outputs": [
        {
          "name": "success",
          "type": "bool"
        }
      ],
      "payable": false,
      "stateMutability": "nonpayable",
      "type": "function"
    },
    {
      "constant": true,
      "inputs": [],
      "name": "paused",
      "outputs": [
        {
          "name": "",
          "type": "bool"
        }
      ],
      "payable": false,
      "stateMutability": "view",
      "type": "function"
    },
    {
      "constant": false,
      "inputs": [
        {
          "name": "_claimId",
          "type": "bytes32"
        }
      ],
      "name": "refreshClaim",
      "outputs": [
        {
          "name": "",
          "type": "bool"
        }
      ],
      "payable": false,
      "stateMutability": "nonpayable",
      "type": "function"
    },
    {
      "constant": true,
      "inputs": [
        {
          "name": "",
          "type": "uint256"
        }
      ],
      "name": "execution",
      "outputs": [
        {
          "name": "to",
          "type": "address"
        },
        {
          "name": "value",
          "type": "uint256"
        },
        {
          "name": "data",
          "type": "bytes"
        },
        {
          "name": "needsApprove",
          "type": "uint256"
        }
      ],
      "payable": false,
      "stateMutability": "view",
      "type": "function"
    },
    {
      "constant": true,
      "inputs": [
        {
          "name": "addr",
          "type": "address"
        }
      ],
      "name": "addrToKey",
      "outputs": [
        {
          "name": "",
          "type": "bytes32"
        }
      ],
      "payable": false,
      "stateMutability": "pure",
      "type": "function"
    },
    {
      "constant": true,
      "inputs": [
        {
          "name": "",
          "type": "uint256"
        },
        {
          "name": "",
          "type": "uint256"
        }
      ],
      "name": "approved",
      "outputs": [
        {
          "name": "",
          "type": "address"
        }
      ],
      "payable": false,
      "stateMutability": "view",
      "type": "function"
    },
    {
      "constant": false,
      "inputs": [
        {
          "name": "_id",
          "type": "uint256"
        },
        {
          "name": "_approve",
          "type": "bool"
        }
      ],
      "name": "approve",
      "outputs": [
        {
          "name": "success",
          "type": "bool"
        }
      ],
      "payable": false,
      "stateMutability": "nonpayable",
      "type": "function"
    },
    {
      "constant": true,
      "inputs": [],
      "name": "ERC725ID",
      "outputs": [
        {
          "name": "",
          "type": "bytes4"
        }
      ],
      "payable": false,
      "stateMutability": "pure",
      "type": "function"
    },
    {
      "constant": false,
      "inputs": [],
      "name": "pause",
      "outputs": [],
      "payable": false,
      "stateMutability": "nonpayable",
      "type": "function"
    },
    {
      "constant": true,
      "inputs": [
        {
          "name": "_purpose",
          "type": "uint256"
        }
      ],
      "name": "getKeysByPurpose",
      "outputs": [
        {
          "name": "keys",
          "type": "bytes32[]"
        }
      ],
      "payable": false,
      "stateMutability": "view",
      "type": "function"
    },
    {
      "constant": true,
      "inputs": [],
      "name": "managementThreshold",
      "outputs": [
        {
          "name": "",
          "type": "uint256"
        }
      ],
      "payable": false,
      "stateMutability": "view",
      "type": "function"
    },
    {
      "constant": false,
      "inputs": [
        {
          "name": "_claimType",
          "type": "uint256"
        },
        {
          "name": "_scheme",
          "type": "uint256"
        },
        {
          "name": "issuer",
          "type": "address"
        },
        {
          "name": "_signature",
          "type": "bytes"
        },
        {
          "name": "_data",
          "type": "bytes"
        },
        {
          "name": "_uri",
          "type": "string"
        }
      ],
      "name": "addClaim",
      "outputs": [
        {
          "name": "claimRequestId",
          "type": "uint256"
        }
      ],
      "payable": false,
      "stateMutability": "nonpayable",
      "type": "function"
    },
    {
      "constant": false,
      "inputs": [
        {
          "name": "_to",
          "type": "address"
        },
        {
          "name": "_value",
          "type": "uint256"
        },
        {
          "name": "_data",
          "type": "bytes"
        }
      ],
      "name": "execute",
      "outputs": [
        {
          "name": "executionId",
          "type": "uint256"
        }
      ],
      "payable": false,
      "stateMutability": "nonpayable",
      "type": "function"
    },
    {
      "constant": true,
      "inputs": [
        {
          "name": "_claimType",
          "type": "uint256"
        },
        {
          "name": "_index",
          "type": "uint256"
        }
      ],
      "name": "getClaimByTypeAndIndex",
      "outputs": [
        {
          "name": "claimType",
          "type": "uint256"
        },
        {
          "name": "scheme",
          "type": "uint256"
        },
        {
          "name": "issuer",
          "type": "address"
        },
        {
          "name": "signature",
          "type": "bytes32"
        },
        {
          "name": "data",
          "type": "bytes32"
        },
        {
          "name": "uri",
          "type": "bytes32"
        }
      ],
      "payable": false,
      "stateMutability": "view",
      "type": "function"
    },
    {
      "constant": true,
      "inputs": [],
      "name": "ERC735ID",
      "outputs": [
        {
          "name": "",
          "type": "bytes4"
        }
      ],
      "payable": false,
      "stateMutability": "pure",
      "type": "function"
    },
    {
      "constant": true,
      "inputs": [
        {
          "name": "_claimId",
          "type": "bytes32"
        }
      ],
      "name": "getClaim",
      "outputs": [
        {
          "name": "claimType",
          "type": "uint256"
        },
        {
          "name": "scheme",
          "type": "uint256"
        },
        {
          "name": "issuer",
          "type": "address"
        },
        {
          "name": "signature",
          "type": "bytes"
        },
        {
          "name": "data",
          "type": "bytes"
        },
        {
          "name": "uri",
          "type": "string"
        }
      ],
      "payable": false,
      "stateMutability": "view",
      "type": "function"
    },
    {
      "constant": true,
      "inputs": [],
      "name": "numKeys",
      "outputs": [
        {
          "name": "",
          "type": "uint256"
        }
      ],
      "payable": false,
      "stateMutability": "view",
      "type": "function"
    },
    {
      "constant": false,
      "inputs": [
        {
          "name": "threshold",
          "type": "uint256"
        }
      ],
      "name": "changeManagementThreshold",
      "outputs": [],
      "payable": false,
      "stateMutability": "nonpayable",
      "type": "function"
    },
    {
      "constant": false,
      "inputs": [
        {
          "name": "threshold",
          "type": "uint256"
        }
      ],
      "name": "changeActionThreshold",
      "outputs": [],
      "payable": false,
      "stateMutability": "nonpayable",
      "type": "function"
    },
    {
      "constant": false,
      "inputs": [
        {
          "name": "_recipient",
          "type": "address"
        }
      ],
      "name": "destroyAndSend",
      "outputs": [],
      "payable": false,
      "stateMutability": "nonpayable",
      "type": "function"
    },
    {
      "constant": true,
      "inputs": [],
      "name": "numClaims",
      "outputs": [
        {
          "name": "",
          "type": "uint256"
        }
      ],
      "payable": false,
      "stateMutability": "view",
      "type": "function"
    },
    {
      "inputs": [
        {
          "name": "_keys",
          "type": "bytes32[]"
        },
        {
          "name": "_purposes",
          "type": "uint256[]"
        },
        {
          "name": "_keyTypes",
          "type": "uint256[]"
        },
        {
          "name": "_managementThreshold",
          "type": "uint256"
        },
        {
          "name": "_actionThreshold",
          "type": "uint256"
        }
      ],
      "payable": false,
      "stateMutability": "nonpayable",
      "type": "constructor"
    },
    {
      "payable": true,
      "stateMutability": "payable",
      "type": "fallback"
    },
    {
      "anonymous": false,
      "inputs": [
        {
          "indexed": true,
          "name": "claimRequestId",
          "type": "uint256"
        },
        {
          "indexed": true,
          "name": "claimType",
          "type": "uint256"
        },
        {
          "indexed": false,
          "name": "scheme",
          "type": "uint256"
        },
        {
          "indexed": true,
          "name": "issuer",
          "type": "address"
        },
        {
          "indexed": false,
          "name": "signature",
          "type": "bytes"
        },
        {
          "indexed": false,
          "name": "data",
          "type": "bytes"
        },
        {
          "indexed": false,
          "name": "uri",
          "type": "string"
        }
      ],
      "name": "ClaimRequested",
      "type": "event"
    },
    {
      "anonymous": false,
      "inputs": [
        {
          "indexed": true,
          "name": "claimId",
          "type": "bytes32"
        },
        {
          "indexed": true,
          "name": "claimType",
          "type": "uint256"
        },
        {
          "indexed": false,
          "name": "scheme",
          "type": "uint256"
        },
        {
          "indexed": true,
          "name": "issuer",
          "type": "address"
        },
        {
          "indexed": false,
          "name": "signature",
          "type": "bytes"
        },
        {
          "indexed": false,
          "name": "data",
          "type": "bytes"
        },
        {
          "indexed": false,
          "name": "uri",
          "type": "string"
        }
      ],
      "name": "ClaimAdded",
      "type": "event"
    },
    {
      "anonymous": false,
      "inputs": [
        {
          "indexed": true,
          "name": "claimId",
          "type": "bytes32"
        },
        {
          "indexed": true,
          "name": "claimType",
          "type": "uint256"
        },
        {
          "indexed": false,
          "name": "scheme",
          "type": "uint256"
        },
        {
          "indexed": true,
          "name": "issuer",
          "type": "address"
        },
        {
          "indexed": false,
          "name": "signature",
          "type": "bytes"
        },
        {
          "indexed": false,
          "name": "data",
          "type": "bytes"
        },
        {
          "indexed": false,
          "name": "uri",
          "type": "string"
        }
      ],
      "name": "ClaimRemoved",
      "type": "event"
    },
    {
      "anonymous": false,
      "inputs": [
        {
          "indexed": true,
          "name": "claimId",
          "type": "bytes32"
        },
        {
          "indexed": true,
          "name": "claimType",
          "type": "uint256"
        },
        {
          "indexed": false,
          "name": "scheme",
          "type": "uint256"
        },
        {
          "indexed": true,
          "name": "issuer",
          "type": "address"
        },
        {
          "indexed": false,
          "name": "signature",
          "type": "bytes"
        },
        {
          "indexed": false,
          "name": "data",
          "type": "bytes"
        },
        {
          "indexed": false,
          "name": "uri",
          "type": "string"
        }
      ],
      "name": "ClaimChanged",
      "type": "event"
    },
    {
      "anonymous": false,
      "inputs": [
        {
          "indexed": true,
          "name": "key",
          "type": "bytes32"
        },
        {
          "indexed": true,
          "name": "purpose",
          "type": "uint256"
        },
        {
          "indexed": true,
          "name": "keyType",
          "type": "uint256"
        }
      ],
      "name": "KeyAdded",
      "type": "event"
    },
    {
      "anonymous": false,
      "inputs": [
        {
          "indexed": true,
          "name": "key",
          "type": "bytes32"
        },
        {
          "indexed": true,
          "name": "purpose",
          "type": "uint256"
        },
        {
          "indexed": true,
          "name": "keyType",
          "type": "uint256"
        }
      ],
      "name": "KeyRemoved",
      "type": "event"
    },
    {
      "anonymous": false,
      "inputs": [
        {
          "indexed": true,
          "name": "executionId",
          "type": "uint256"
        },
        {
          "indexed": true,
          "name": "to",
          "type": "address"
        },
        {
          "indexed": true,
          "name": "value",
          "type": "uint256"
        },
        {
          "indexed": false,
          "name": "data",
          "type": "bytes"
        }
      ],
      "name": "ExecutionRequested",
      "type": "event"
    },
    {
      "anonymous": false,
      "inputs": [
        {
          "indexed": true,
          "name": "executionId",
          "type": "uint256"
        },
        {
          "indexed": true,
          "name": "to",
          "type": "address"
        },
        {
          "indexed": true,
          "name": "value",
          "type": "uint256"
        },
        {
          "indexed": false,
          "name": "data",
          "type": "bytes"
        }
      ],
      "name": "Executed",
      "type": "event"
    },
    {
      "anonymous": false,
      "inputs": [
        {
          "indexed": true,
          "name": "executionId",
          "type": "uint256"
        },
        {
          "indexed": false,
          "name": "approved",
          "type": "bool"
        }
      ],
      "name": "Approved",
      "type": "event"
    },
    {
      "anonymous": false,
      "inputs": [
        {
          "indexed": true,
          "name": "executionId",
          "type": "uint256"
        },
        {
          "indexed": true,
          "name": "to",
          "type": "address"
        },
        {
          "indexed": true,
          "name": "value",
          "type": "uint256"
        },
        {
          "indexed": false,
          "name": "data",
          "type": "bytes"
        }
      ],
      "name": "ExecutionFailed",
      "type": "event"
    },
    {
      "anonymous": false,
      "inputs": [],
      "name": "Pause",
      "type": "event"
    },
    {
      "anonymous": false,
      "inputs": [],
      "name": "Unpause",
      "type": "event"
    }
  ],
  "bytecode": "0x60606040526001600055600180556000600360006101000a81548160ff021916908315150217905550600160055534156200003957600080fd5b6040516200552338038062005523833981016040528080518201919060200180518201919060200180518201919060200180519060200190919080519060200190919050506000806000806000600160046000620000aa6200059a6401000000000262000f9f176401000000009004565b7bffffffffffffffffffffffffffffffffffffffffffffffffffffffff19167bffffffffffffffffffffffffffffffffffffffffffffffffffffffff1916815260200190815260200160002060006101000a81548160ff02191690831515021790555060016004600062000131620005c56401000000000262002890176401000000009004565b7bffffffffffffffffffffffffffffffffffffffffffffffffffffffff19167bffffffffffffffffffffffffffffffffffffffffffffffffffffffff1916815260200190815260200160002060006101000a81548160ff021916908315150217905550600160046000620001b8620006ce64010000000002620037f7176401000000009004565b7bffffffffffffffffffffffffffffffffffffffffffffffffffffffff19167bffffffffffffffffffffffffffffffffffffffffffffffffffffffff1916815260200190815260200160002060006101000a81548160ff0219169083151502179055506000871115156200022b57600080fd5b6000861115156200023b57600080fd5b88518a511415156200024c57600080fd5b875189511415156200025d57600080fd5b600194505b8951851015620003315789600186038151811015156200027e57fe5b90602001906020020151935083600019168a868151811015156200029e57fe5b9060200190602002015160001916118062000317575083600019168a86815181101515620002c857fe5b90602001906020020151600019161480156200031657508860018603815181101515620002f157fe5b9060200190602002015189868151811015156200030a57fe5b90602001906020020151115b5b15156200032357600080fd5b848060010195505062000262565b60016004600062000355620006ce64010000000002620037f7176401000000009004565b62000373620005c56401000000000262002890176401000000009004565b187bffffffffffffffffffffffffffffffffffffffffffffffffffffffff19167bffffffffffffffffffffffffffffffffffffffffffffffffffffffff1916815260200190815260200160002060006101000a81548160ff02191690831515021790555060008a51141562000479576200040133620007686401000000000262002293176401000000009004565b905062000425816001806200078b6401000000000262003dd4176401000000009004565b6200044881600260016200078b6401000000000262003dd4176401000000009004565b6200046b81600360016200078b6401000000000262003dd4176401000000009004565b60019250600191506200055c565b600094505b89518510156200055b57620004f18a868151811015156200049b57fe5b906020019060200201518a87815181101515620004b457fe5b906020019060200201518a88815181101515620004cd57fe5b906020019060200201516200078b6401000000000262003dd4176401000000009004565b600189868151811015156200050257fe5b906020019060200201511415620005215781806001019250506200054d565b600289868151811015156200053257fe5b9060200190602002015114156200054c5782806001019350505b5b84806001019550506200047e565b5b8187111515156200056c57600080fd5b8286111515156200057c57600080fd5b866000819055508560018190555050505050505050505050620008d1565b60006301ffc9a77c010000000000000000000000000000000000000000000000000000000002905090565b60006353d413c57c01000000000000000000000000000000000000000000000000000000000263747442d37c01000000000000000000000000000000000000000000000000000000000263b61d27f67c010000000000000000000000000000000000000000000000000000000002631d3812407c010000000000000000000000000000000000000000000000000000000002639010f7267c01000000000000000000000000000000000000000000000000000000000263032c1a8a7c0100000000000000000000000000000000000000000000000000000000026313fb4b8f7c010000000000000000000000000000000000000000000000000000000002181818181818905090565b6000634eee424a7c01000000000000000000000000000000000000000000000000000000000263b1a34e0d7c01000000000000000000000000000000000000000000000000000000000263262b54f57c01000000000000000000000000000000000000000000000000000000000263c9100bcb7c010000000000000000000000000000000000000000000000000000000002181818905090565b60008173ffffffffffffffffffffffffffffffffffffffff166001029050919050565b620007b38383836002620007eb64010000000002620046781790939291906401000000009004565b808284600019167f480000bb1edad8ca1470381cc334b1917fbd51c6531f3a623ea8e0ec7e38a6e960405160405180910390a4505050565b83805480600101828162000800919062000862565b916000526020600020906003020160006060604051908101604052808681526020018581526020018760001916815250909190915060008201518160000155602082015181600101556040820151816002019060001916905550505050505050565b815481835581811511620008925760030281600302836000526020600020918201910162000891919062000897565b5b505050565b620008ce91905b80821115620008ca5760008082016000905560018201600090556002820160009055506003016200089e565b5090565b90565b614c4280620008e16000396000f3006060604052600436106101a1576000357c0100000000000000000000000000000000000000000000000000000000900463ffffffff16806301ffc9a7146101a357806302e7491e146101fd578063032c1a8a1461026457806313fb4b8f146102e0578063190db8621461033a5780631d203be8146103985780631d38124014610439578063262b54f51461048a57806338f4edd4146105025780633b8a12c81461052b5780633f4ba83a146105d55780634eee424a146105ea57806353d413c5146106295780635c975abb146106715780635d7bc3fc1461069e5780635dccebba146106dd57806363f14c3c146107ba5780636e4c43111461080f578063747442d31461087b5780637d96fa58146108c15780638456cb59146109285780639010f7261461093d578063aa0a5142146109b5578063b1a34e0d146109de578063b61d27f614610b06578063b98865b914610b9f578063bf2f20ad14610c46578063c9100bcb14610cad578063c9d24ecc14610e66578063ccfe586814610e8f578063e99896b814610eb2578063f5074f4114610ed5578063fc0fc84914610f0e575b005b34156101ae57600080fd5b6101e360048080357bffffffffffffffffffffffffffffffffffffffffffffffffffffffff1916906020019091905050610f37565b604051808215151515815260200191505060405180910390f35b341561020857600080fd5b610210610f9f565b60405180827bffffffffffffffffffffffffffffffffffffffffffffffffffffffff19167bffffffffffffffffffffffffffffffffffffffffffffffffffffffff1916815260200191505060405180910390f35b341561026f57600080fd5b610289600480803560001916906020019091905050610fca565b6040518080602001828103825283818151815260200191508051906020019060200280838360005b838110156102cc5780820151818401526020810190506102b1565b505050509050019250505060405180910390f35b34156102eb57600080fd5b61030e6004808035600019169060200190919080359060200190919050506110ef565b604051808481526020018381526020018260001916600019168152602001935050505060405180910390f35b341561034557600080fd5b61037a600480803573ffffffffffffffffffffffffffffffffffffffff1690602001909190803590602001909190505061115b565b60405180826000191660001916815260200191505060405180910390f35b34156103a357600080fd5b61041b600480803573ffffffffffffffffffffffffffffffffffffffff1690602001909190803590602001909190803590602001908201803590602001908080601f016020809104026020016040519081016040528093929190818152602001838380828437820191505050505050919050506111be565b60405180826000191660001916815260200191505060405180910390f35b341561044457600080fd5b610470600480803560001916906020019091908035906020019091908035906020019091905050611277565b604051808215151515815260200191505060405180910390f35b341561049557600080fd5b6104ab60048080359060200190919050506112ec565b6040518080602001828103825283818151815260200191508051906020019060200280838360005b838110156104ee5780820151818401526020810190506104d3565b505050509050019250505060405180910390f35b341561050d57600080fd5b610515611361565b6040518082815260200191505060405180910390f35b341561053657600080fd5b61059360048080356000191690602001909190803590602001908201803590602001908080601f01602080910402602001604051908101604052809392919081815260200183838082843782019150505050505091905050611367565b604051808273ffffffffffffffffffffffffffffffffffffffff1673ffffffffffffffffffffffffffffffffffffffff16815260200191505060405180910390f35b34156105e057600080fd5b6105e861142f565b005b34156105f557600080fd5b61060f6004808035600019169060200190919050506114a6565b604051808215151515815260200191505060405180910390f35b341561063457600080fd5b610657600480803560001916906020019091908035906020019091905050611c42565b604051808215151515815260200191505060405180910390f35b341561067c57600080fd5b610684611cf1565b604051808215151515815260200191505060405180910390f35b34156106a957600080fd5b6106c3600480803560001916906020019091905050611d04565b604051808215151515815260200191505060405180910390f35b34156106e857600080fd5b6106fe60048080359060200190919050506121ab565b604051808573ffffffffffffffffffffffffffffffffffffffff1673ffffffffffffffffffffffffffffffffffffffff16815260200184815260200180602001838152602001828103825284818151815260200191508051906020019080838360005b8381101561077c578082015181840152602081019050610761565b50505050905090810190601f1680156107a95780820380516001836020036101000a031916815260200191505b509550505050505060405180910390f35b34156107c557600080fd5b6107f1600480803573ffffffffffffffffffffffffffffffffffffffff16906020019091905050612293565b60405180826000191660001916815260200191505060405180910390f35b341561081a57600080fd5b61083960048080359060200190919080359060200190919050506122b6565b604051808273ffffffffffffffffffffffffffffffffffffffff1673ffffffffffffffffffffffffffffffffffffffff16815260200191505060405180910390f35b341561088657600080fd5b6108a760048080359060200190919080351515906020019091905050612304565b604051808215151515815260200191505060405180910390f35b34156108cc57600080fd5b6108d4612890565b60405180827bffffffffffffffffffffffffffffffffffffffffffffffffffffffff19167bffffffffffffffffffffffffffffffffffffffffffffffffffffffff1916815260200191505060405180910390f35b341561093357600080fd5b61093b612999565b005b341561094857600080fd5b61095e6004808035906020019091905050612a11565b6040518080602001828103825283818151815260200191508051906020019060200280838360005b838110156109a1578082015181840152602081019050610986565b505050509050019250505060405180910390f35b34156109c057600080fd5b6109c8612b30565b6040518082815260200191505060405180910390f35b34156109e957600080fd5b610af0600480803590602001909190803590602001909190803573ffffffffffffffffffffffffffffffffffffffff1690602001909190803590602001908201803590602001908080601f0160208091040260200160405190810160405280939291908181526020018383808284378201915050505050509190803590602001908201803590602001908080601f0160208091040260200160405190810160405280939291908181526020018383808284378201915050505050509190803590602001908201803590602001908080601f01602080910402602001604051908101604052809392919081815260200183838082843782019150505050505091905050612b36565b6040518082815260200191505060405180910390f35b3415610b1157600080fd5b610b89600480803573ffffffffffffffffffffffffffffffffffffffff1690602001909190803590602001909190803590602001908201803590602001908080601f0160208091040260200160405190810160405280939291908181526020018383808284378201915050505050509190505061339b565b6040518082815260200191505060405180910390f35b3415610baa57600080fd5b610bc96004808035906020019091908035906020019091905050613762565b604051808781526020018681526020018573ffffffffffffffffffffffffffffffffffffffff1673ffffffffffffffffffffffffffffffffffffffff168152602001846000191660001916815260200183600019166000191681526020018260001916600019168152602001965050505050505060405180910390f35b3415610c5157600080fd5b610c596137f7565b60405180827bffffffffffffffffffffffffffffffffffffffffffffffffffffffff19167bffffffffffffffffffffffffffffffffffffffffffffffffffffffff1916815260200191505060405180910390f35b3415610cb857600080fd5b610cd2600480803560001916906020019091905050613891565b604051808781526020018681526020018573ffffffffffffffffffffffffffffffffffffffff1673ffffffffffffffffffffffffffffffffffffffff168152602001806020018060200180602001848103845287818151815260200191508051906020019080838360005b83811015610d58578082015181840152602081019050610d3d565b50505050905090810190601f168015610d855780820380516001836020036101000a031916815260200191505b50848103835286818151815260200191508051906020019080838360005b83811015610dbe578082015181840152602081019050610da3565b50505050905090810190601f168015610deb5780820380516001836020036101000a031916815260200191505b50848103825285818151815260200191508051906020019080838360005b83811015610e24578082015181840152602081019050610e09565b50505050905090810190601f168015610e515780820380516001836020036101000a031916815260200191505b50995050505050505050505060405180910390f35b3415610e7157600080fd5b610e79613b77565b6040518082815260200191505060405180910390f35b3415610e9a57600080fd5b610eb06004808035906020019091905050613b84565b005b3415610ebd57600080fd5b610ed36004808035906020019091905050613beb565b005b3415610ee057600080fd5b610f0c600480803573ffffffffffffffffffffffffffffffffffffffff16906020019091905050613c52565b005b3415610f1957600080fd5b610f21613cba565b6040518082815260200191505060405180910390f35b600060046000837bffffffffffffffffffffffffffffffffffffffffffffffffffffffff19167bffffffffffffffffffffffffffffffffffffffffffffffffffffffff1916815260200190815260200160002060009054906101000a900460ff169050919050565b60006301ffc9a77c010000000000000000000000000000000000000000000000000000000002905090565b610fd261473e565b60008060009150600090505b600280549050811015611031578360001916600282815481101515610fff57fe5b9060005260206000209060030201600201546000191614156110245781806001019250505b8080600101915050610fde565b8160405180591061103f5750595b90808252806020026020018201604052509250600090508091505b6002805490508110156110e857836000191660028281548110151561107b57fe5b9060005260206000209060030201600201546000191614156110db576002818154811015156110a657fe5b90600052602060002090600302016000015483838060010194508151811015156110cc57fe5b90602001906020020181815250505b808060010191505061105a565b5050919050565b60008060008060008061110e88886002613cc09092919063ffffffff16565b809350819450505081156111515760028381548110151561112b57fe5b906000526020600020906003020190508060000154955080600101549450806002015493505b5050509250925092565b60008282604051808373ffffffffffffffffffffffffffffffffffffffff1673ffffffffffffffffffffffffffffffffffffffff166c01000000000000000000000000028152601401828152602001925050506040518091039020905092915050565b6000838383604051808473ffffffffffffffffffffffffffffffffffffffff1673ffffffffffffffffffffffffffffffffffffffff166c0100000000000000000000000002815260140183815260200182805190602001908083835b60208310151561123f578051825260208201915060208101905060208303925061121a565b6001836020036101000a0380198251168184511680821785525050505050509050019350505050604051809103902090509392505050565b600080611282613d5b565b151561128d57600080fd5b600360009054906101000a900460ff161515156112a957600080fd5b6112bf85856002613cc09092919063ffffffff16565b90508091505080156112d457600091506112e4565b6112df858585613dd4565b600191505b509392505050565b6112f4614752565b6009600083815260200190815260200160002080548060200260200160405190810160405280929190818152602001828054801561135557602002820191906000526020600020905b8154600019168152602001906001019080831161133d575b50505050509050919050565b60015481565b6000611427826040805190810160405280601c81526020017f19457468657265756d205369676e6564204d6573736167653a0a333200000000815250856040518083805190602001908083835b6020831015156113d957805182526020820191506020810190506020830392506113b4565b6001836020036101000a038019825116818451168082178552505050505050905001826000191660001916815260200192505050604051809103902060001916613e2490919063ffffffff16565b905092915050565b611437613d5b565b151561144257600080fd5b600360009054906101000a900460ff16151561145d57600080fd5b6000600360006101000a81548160ff0219169083151502179055507f7805862f689e2f13df9f062ff482ad3ad112aca9e0847911ed832e158c525b3360405160405180910390a1565b60006114b0614766565b600080600360009054906101000a900460ff161515156114cf57600080fd5b84600080600060086000856000191660001916815260200190815260200160002060020160009054906101000a900473ffffffffffffffffffffffffffffffffffffffff16925060008373ffffffffffffffffffffffffffffffffffffffff161415151561153c57600080fd5b60009150611548613d5b565b156115565760019150611682565b8273ffffffffffffffffffffffffffffffffffffffff163373ffffffffffffffffffffffffffffffffffffffff1614156115935760019150611681565b6115c361159e612890565b8473ffffffffffffffffffffffffffffffffffffffff16613f1590919063ffffffff16565b15611680578273ffffffffffffffffffffffffffffffffffffffff166313fb4b8f6115ed33612293565b60026040518363ffffffff167c010000000000000000000000000000000000000000000000000000000002815260040180836000191660001916815260200182815260200192505050606060405180830381600087803b151561164f57600080fd5b5af1151561165c57600080fd5b50505060405180519060200180519060200180519050905050809150506002811491505b5b5b81151561168e57600080fd5b600860008a6000191660001916815260200190815260200160002060c0604051908101604052908160008201548152602001600182015481526020016002820160009054906101000a900473ffffffffffffffffffffffffffffffffffffffff1673ffffffffffffffffffffffffffffffffffffffff1673ffffffffffffffffffffffffffffffffffffffff168152602001600382018054600181600116156101000203166002900480601f0160208091040260200160405190810160405280929190818152602001828054600181600116156101000203166002900480156117b85780601f1061178d576101008083540402835291602001916117b8565b820191906000526020600020905b81548152906001019060200180831161179b57829003601f168201915b50505050508152602001600482018054600181600116156101000203166002900480601f01602080910402602001604051908101604052809291908181526020018280546001816001161561010002031660029004801561185a5780601f1061182f5761010080835404028352916020019161185a565b820191906000526020600020905b81548152906001019060200180831161183d57829003601f168201915b50505050508152602001600582018054600181600116156101000203166002900480601f0160208091040260200160405190810160405280929190818152602001828054600181600116156101000203166002900480156118fc5780601f106118d1576101008083540402835291602001916118fc565b820191906000526020600020905b8154815290600101906020018083116118df57829003601f168201915b5050505050815250509650600860008a6000191660001916815260200190815260200160002060008082016000905560018201600090556002820160006101000a81549073ffffffffffffffffffffffffffffffffffffffff021916905560038201600061196a91906147c5565b60048201600061197a91906147c5565b60058201600061198a919061480d565b505060096000886000015181526020019081526020016000209550600094505b8580549050851015611a6c57886000191686868154811015156119c957fe5b906000526020600020900154600019161415611a5f578560018780549050038154811015156119f457fe5b9060005260206000209001548686815481101515611a0e57fe5b90600052602060002090018160001916905550856001878054905003815481101515611a3657fe5b90600052602060002090016000905585805480919060019003611a599190614855565b50611a6c565b84806001019550506119aa565b600a6000815480929190600190039190505550866040015173ffffffffffffffffffffffffffffffffffffffff1687600001518a600019167f3cf57863a89432c61c4a27073c6ee39e8a764bff5a05aebfbcdcdc80b2e6130a8a602001518b606001518c608001518d60a0015160405180858152602001806020018060200180602001848103845287818151815260200191508051906020019080838360005b83811015611b27578082015181840152602081019050611b0c565b50505050905090810190601f168015611b545780820380516001836020036101000a031916815260200191505b50848103835286818151815260200191508051906020019080838360005b83811015611b8d578082015181840152602081019050611b72565b50505050905090810190601f168015611bba5780820380516001836020036101000a031916815260200191505b50848103825285818151815260200191508051906020019080838360005b83811015611bf3578082015181840152602081019050611bd8565b50505050905090810190601f168015611c205780820380516001836020036101000a031916815260200191505b5097505050505050505060405180910390a46001975050505050505050919050565b600080600080611c50613d5b565b1515611c5b57600080fd5b600360009054906101000a900460ff16151515611c7757600080fd5b611c8d86866002613cc09092919063ffffffff16565b80935081945050508115611ce557611caf836002613ffc90919063ffffffff16565b9050808587600019167f585a4aef50f8267a92b32412b331b20f7f8b96f2245b253b9cc50dcc621d339760405160405180910390a45b81935050505092915050565b600360009054906101000a900460ff1681565b6000611d0e614766565b600360009054906101000a900460ff16151515611d2a57600080fd5b82600080600060086000856000191660001916815260200190815260200160002060020160009054906101000a900473ffffffffffffffffffffffffffffffffffffffff16925060008373ffffffffffffffffffffffffffffffffffffffff1614151515611d9757600080fd5b60009150611da3613d5b565b15611db15760019150611edd565b8273ffffffffffffffffffffffffffffffffffffffff163373ffffffffffffffffffffffffffffffffffffffff161415611dee5760019150611edc565b611e1e611df9612890565b8473ffffffffffffffffffffffffffffffffffffffff16613f1590919063ffffffff16565b15611edb578273ffffffffffffffffffffffffffffffffffffffff166313fb4b8f611e4833612293565b60026040518363ffffffff167c010000000000000000000000000000000000000000000000000000000002815260040180836000191660001916815260200182815260200192505050606060405180830381600087803b1515611eaa57600080fd5b5af11515611eb757600080fd5b50505060405180519060200180519060200180519050905050809150506002811491505b5b5b811515611ee957600080fd5b60086000886000191660001916815260200190815260200160002060c0604051908101604052908160008201548152602001600182015481526020016002820160009054906101000a900473ffffffffffffffffffffffffffffffffffffffff1673ffffffffffffffffffffffffffffffffffffffff1673ffffffffffffffffffffffffffffffffffffffff168152602001600382018054600181600116156101000203166002900480601f0160208091040260200160405190810160405280929190818152602001828054600181600116156101000203166002900480156120135780601f10611fe857610100808354040283529160200191612013565b820191906000526020600020905b815481529060010190602001808311611ff657829003601f168201915b50505050508152602001600482018054600181600116156101000203166002900480601f0160208091040260200160405190810160405280929190818152602001828054600181600116156101000203166002900480156120b55780601f1061208a576101008083540402835291602001916120b5565b820191906000526020600020905b81548152906001019060200180831161209857829003601f168201915b50505050508152602001600582018054600181600116156101000203166002900480601f0160208091040260200160405190810160405280929190818152602001828054600181600116156101000203166002900480156121575780601f1061212c57610100808354040283529160200191612157565b820191906000526020600020905b81548152906001019060200180831161213a57829003601f168201915b5050505050815250509450612183856000015186602001518760400151886060015189608001516140df565b151561219c57612192876114a6565b50600095506121a1565b600195505b5050505050919050565b60066020528060005260406000206000915090508060000160009054906101000a900473ffffffffffffffffffffffffffffffffffffffff1690806001015490806002018054600181600116156101000203166002900480601f0160208091040260200160405190810160405280929190818152602001828054600181600116156101000203166002900480156122835780601f1061225857610100808354040283529160200191612283565b820191906000526020600020905b81548152906001019060200180831161226657829003601f168201915b5050505050908060030154905084565b60008173ffffffffffffffffffffffffffffffffffffffff166001029050919050565b6007602052816000526040600020818154811015156122d157fe5b90600052602060002090016000915091509054906101000a900473ffffffffffffffffffffffffffffffffffffffff1681565b6000806000806000600360009054906101000a900460ff1615151561232857600080fd5b6000871415151561233857600080fd5b60066000888152602001908152602001600020935060008460000160009054906101000a900473ffffffffffffffffffffffffffffffffffffffff1673ffffffffffffffffffffffffffffffffffffffff161415151561239757600080fd5b3073ffffffffffffffffffffffffffffffffffffffff168460000160009054906101000a900473ffffffffffffffffffffffffffffffffffffffff1673ffffffffffffffffffffffffffffffffffffffff1614156124195761240e6123fb33612293565b60016002613cc09092919063ffffffff16565b90508093505061243e565b61243761242533612293565b600280613cc09092919063ffffffff16565b9050809350505b82151561244a57600080fd5b867fb3932da477fe5d6c8ff2eafef050c0f3a1af18fc07121001482600f36f3715d887604051808215151515815260200191505060405180910390a260076000888152602001908152602001600020915085151561264257600090505b8180549050811015612639573373ffffffffffffffffffffffffffffffffffffffff1682828154811015156124d857fe5b906000526020600020900160009054906101000a900473ffffffffffffffffffffffffffffffffffffffff1673ffffffffffffffffffffffffffffffffffffffff16141561262c5781600183805490500381548110151561253557fe5b906000526020600020900160009054906101000a900473ffffffffffffffffffffffffffffffffffffffff16828281548110151561256f57fe5b906000526020600020900160006101000a81548173ffffffffffffffffffffffffffffffffffffffff021916908373ffffffffffffffffffffffffffffffffffffffff1602179055508160018380549050038154811015156125cd57fe5b906000526020600020900160006101000a81549073ffffffffffffffffffffffffffffffffffffffff02191690558180548091906001900361260f9190614881565b506001846003016000828254019250508190555060019450612886565b80806001019150506124a7565b60009450612886565b600090505b81805490508110156126d4573373ffffffffffffffffffffffffffffffffffffffff16828281548110151561267857fe5b906000526020600020900160009054906101000a900473ffffffffffffffffffffffffffffffffffffffff1673ffffffffffffffffffffffffffffffffffffffff16141515156126c757600080fd5b8080600101915050612647565b8180548060010182816126e79190614881565b9160005260206000209001600033909190916101000a81548173ffffffffffffffffffffffffffffffffffffffff021916908373ffffffffffffffffffffffffffffffffffffffff16021790555050600184600301600082825403925050819055506000846003015414156128815761287a8785608060405190810160405290816000820160009054906101000a900473ffffffffffffffffffffffffffffffffffffffff1673ffffffffffffffffffffffffffffffffffffffff1673ffffffffffffffffffffffffffffffffffffffff16815260200160018201548152602001600282018054600181600116156101000203166002900480601f0160208091040260200160405190810160405280929190818152602001828054600181600116156101000203166002900480156128605780601f1061283557610100808354040283529160200191612860565b820191906000526020600020905b81548152906001019060200180831161284357829003601f168201915b505050505081526020016003820154815250506001614280565b9450612886565b600194505b5050505092915050565b60006353d413c57c01000000000000000000000000000000000000000000000000000000000263747442d37c01000000000000000000000000000000000000000000000000000000000263b61d27f67c010000000000000000000000000000000000000000000000000000000002631d3812407c010000000000000000000000000000000000000000000000000000000002639010f7267c01000000000000000000000000000000000000000000000000000000000263032c1a8a7c0100000000000000000000000000000000000000000000000000000000026313fb4b8f7c010000000000000000000000000000000000000000000000000000000002181818181818905090565b6129a1613d5b565b15156129ac57600080fd5b600360009054906101000a900460ff161515156129c857600080fd5b6001600360006101000a81548160ff0219169083151502179055507f6985a02210a168e66602d3235cb6db0e70f92b3ba4d376a33c0f3d9434bff62560405160405180910390a1565b612a19614752565b60008060009150600090505b600280549050811015612a705783600282815481101515612a4257fe5b9060005260206000209060030201600001541415612a635781806001019250505b8080600101915050612a25565b81604051805910612a7e5750595b90808252806020026020018201604052509250600090508091505b600280549050811015612b295783600282815481101515612ab657fe5b9060005260206000209060030201600001541415612b1c57600281815481101515612add57fe5b9060005260206000209060030201600201548383806001019450815181101515612b0357fe5b9060200190602002019060001916908160001916815250505b8080600101915050612a99565b5050919050565b60005481565b600080600080600360009054906101000a900460ff16151515612b5857600080fd5b612b658a8a8a8a8a6140df565b1515612b7057600080fd5b612b78613d5b565b9250821515612dfb573073ffffffffffffffffffffffffffffffffffffffff1663b61d27f630600080366040518563ffffffff167c0100000000000000000000000000000000000000000000000000000000028152600401808573ffffffffffffffffffffffffffffffffffffffff1673ffffffffffffffffffffffffffffffffffffffff168152602001848152602001806020018281038252848482818152602001925080828437820191505095505050505050602060405180830381600087803b1515612c4657600080fd5b5af11515612c5357600080fd5b5050506040518051905093508773ffffffffffffffffffffffffffffffffffffffff168a857fe6b6db97dedfb44cbced367387e40b3f92dbee1b1be87f9367f7b673532b0d698c8b8b8b60405180858152602001806020018060200180602001848103845287818151815260200191508051906020019080838360005b83811015612ceb578082015181840152602081019050612cd0565b50505050905090810190601f168015612d185780820380516001836020036101000a031916815260200191505b50848103835286818151815260200191508051906020019080838360005b83811015612d51578082015181840152602081019050612d36565b50505050905090810190601f168015612d7e5780820380516001836020036101000a031916815260200191505b50848103825285818151815260200191508051906020019080838360005b83811015612db7578082015181840152602081019050612d9c565b50505050905090810190601f168015612de45780820380516001836020036101000a031916815260200191505b5097505050505050505060405180910390a461338e565b612e05888b61115b565b9150600073ffffffffffffffffffffffffffffffffffffffff1660086000846000191660001916815260200190815260200160002060020160009054906101000a900473ffffffffffffffffffffffffffffffffffffffff1673ffffffffffffffffffffffffffffffffffffffff1614156131805760c0604051908101604052808b81526020018a81526020018973ffffffffffffffffffffffffffffffffffffffff16815260200188815260200187815260200186815250600860008460001916600019168152602001908152602001600020600082015181600001556020820151816001015560408201518160020160006101000a81548173ffffffffffffffffffffffffffffffffffffffff021916908373ffffffffffffffffffffffffffffffffffffffff1602179055506060820151816003019080519060200190612f509291906148ad565b506080820151816004019080519060200190612f6d9291906148ad565b5060a0820151816005019080519060200190612f8a92919061492d565b50905050600960008b81526020019081526020016000208054806001018281612fb39190614855565b916000526020600020900160008490919091509060001916905550600a600081548092919060010191905055508773ffffffffffffffffffffffffffffffffffffffff168a83600019167f46149b18aa084502c3f12bc75e19eda8bda8d102b82cce8474677a6d0d5f43c58c8b8b8b60405180858152602001806020018060200180602001848103845287818151815260200191508051906020019080838360005b83811015613070578082015181840152602081019050613055565b50505050905090810190601f16801561309d5780820380516001836020036101000a031916815260200191505b50848103835286818151815260200191508051906020019080838360005b838110156130d65780820151818401526020810190506130bb565b50505050905090810190601f1680156131035780820380516001836020036101000a031916815260200191505b50848103825285818151815260200191508051906020019080838360005b8381101561313c578082015181840152602081019050613121565b50505050905090810190601f1680156131695780820380516001836020036101000a031916815260200191505b5097505050505050505060405180910390a461338d565b6008600083600019166000191681526020019081526020016000209050888160010181905550868160030190805190602001906131be9291906149ad565b50858160040190805190602001906131d79291906149ad565b50848160050190805190602001906131f0929190614a2d565b508773ffffffffffffffffffffffffffffffffffffffff168a83600019167f3bab293fc00db832d7619a9299914251b8747c036867ec056cbd506f60135b138c8b8b8b60405180858152602001806020018060200180602001848103845287818151815260200191508051906020019080838360005b83811015613281578082015181840152602081019050613266565b50505050905090810190601f1680156132ae5780820380516001836020036101000a031916815260200191505b50848103835286818151815260200191508051906020019080838360005b838110156132e75780820151818401526020810190506132cc565b50505050905090810190601f1680156133145780820380516001836020036101000a031916815260200191505b50848103825285818151815260200191508051906020019080838360005b8381101561334d578082015181840152602081019050613332565b50505050905090810190601f16801561337a5780820380516001836020036101000a031916815260200191505b5097505050505050505060405180910390a45b5b5050509695505050505050565b60008060006133a8614aad565b600360009054906101000a900460ff161515156133c457600080fd5b3073ffffffffffffffffffffffffffffffffffffffff168773ffffffffffffffffffffffffffffffffffffffff16141561346d573073ffffffffffffffffffffffffffffffffffffffff163373ffffffffffffffffffffffffffffffffffffffff16141561343a57600192506000549150613468565b61345961344633612293565b60016002613cc09092919063ffffffff16565b90508093505060016000540391505b613518565b600073ffffffffffffffffffffffffffffffffffffffff168773ffffffffffffffffffffffffffffffffffffffff16141515156134a957600080fd5b3073ffffffffffffffffffffffffffffffffffffffff163373ffffffffffffffffffffffffffffffffffffffff1614156134eb57600192506001549150613517565b6135096134f733612293565b600280613cc09092919063ffffffff16565b905080935050600180540391505b5b82151561352457600080fd5b6135333088888860055461456e565b9350858773ffffffffffffffffffffffffffffffffffffffff16857f8afcfabcb00e47a53a8fc3e9f23ff47ee1926194bb1350dd007c50b412a6cee8886040518080602001828103825283818151815260200191508051906020019080838360005b838110156135b0578082015181840152602081019050613595565b50505050905090810190601f1680156135dd5780820380516001836020036101000a031916815260200191505b509250505060405180910390a46005600081548092919060010191905055506080604051908101604052808873ffffffffffffffffffffffffffffffffffffffff16815260200187815260200186815260200183815250905060008214156136515761364b84826000614280565b50613755565b806006600086815260200190815260200160002060008201518160000160006101000a81548173ffffffffffffffffffffffffffffffffffffffff021916908373ffffffffffffffffffffffffffffffffffffffff1602179055506020820151816001015560408201518160020190805190602001906136d29291906148ad565b50606082015181600301559050506007600085815260200190815260200160002080548060010182816137059190614881565b9160005260206000209001600033909190916101000a81548173ffffffffffffffffffffffffffffffffffffffff021916908373ffffffffffffffffffffffffffffffffffffffff160217905550505b8393505050509392505050565b6000806000806000806000613775614af2565b61377d614af2565b613785614b06565b600960008d81526020019081526020016000208b8154811015156137a557fe5b90600052602060002090015493506137bc84613891565b809650819750829850839d50849e50859f50505050505050602083015196506020820151955060208101519450505050509295509295509295565b6000634eee424a7c01000000000000000000000000000000000000000000000000000000000263b1a34e0d7c01000000000000000000000000000000000000000000000000000000000263262b54f57c01000000000000000000000000000000000000000000000000000000000263c9100bcb7c010000000000000000000000000000000000000000000000000000000002181818905090565b600080600061389e614af2565b6138a6614af2565b6138ae614b06565b6138b6614766565b60086000896000191660001916815260200190815260200160002060c0604051908101604052908160008201548152602001600182015481526020016002820160009054906101000a900473ffffffffffffffffffffffffffffffffffffffff1673ffffffffffffffffffffffffffffffffffffffff1673ffffffffffffffffffffffffffffffffffffffff168152602001600382018054600181600116156101000203166002900480601f0160208091040260200160405190810160405280929190818152602001828054600181600116156101000203166002900480156139e05780601f106139b5576101008083540402835291602001916139e0565b820191906000526020600020905b8154815290600101906020018083116139c357829003601f168201915b50505050508152602001600482018054600181600116156101000203166002900480601f016020809104026020016040519081016040528092919081815260200182805460018160011615610100020316600290048015613a825780601f10613a5757610100808354040283529160200191613a82565b820191906000526020600020905b815481529060010190602001808311613a6557829003601f168201915b50505050508152602001600582018054600181600116156101000203166002900480601f016020809104026020016040519081016040528092919081815260200182805460018160011615610100020316600290048015613b245780601f10613af957610100808354040283529160200191613b24565b820191906000526020600020905b815481529060010190602001808311613b0757829003601f168201915b50505050508152505090506000816000015114151515613b4357600080fd5b80600001519650806020015195508060400151945080606001519350806080015192508060a0015191505091939550919395565b6000600280549050905090565b6000600360009054906101000a900460ff16151515613ba257600080fd5b613baa613d5b565b1515613bb557600080fd5b600082111515613bc457600080fd5b613bce6001612a11565b519050808211151515613be057600080fd5b816000819055505050565b6000600360009054906101000a900460ff16151515613c0957600080fd5b613c11613d5b565b1515613c1c57600080fd5b600082111515613c2b57600080fd5b613c356002612a11565b519050808211151515613c4757600080fd5b816001819055505050565b613c5a613d5b565b1515613c6557600080fd5b600073ffffffffffffffffffffffffffffffffffffffff168173ffffffffffffffffffffffffffffffffffffffff1614151515613ca157600080fd5b8073ffffffffffffffffffffffffffffffffffffffff16ff5b600a5481565b60008060008090505b8580549050811015613d475784600019168682815481101515613ce857fe5b90600052602060002090600302016002015460001916148015613d295750838682815481101515613d1557fe5b906000526020600020906003020160000154145b15613d3a5780600192509250613d52565b8080600101915050613cc9565b600080819150925092505b50935093915050565b60003073ffffffffffffffffffffffffffffffffffffffff163373ffffffffffffffffffffffffffffffffffffffff161415613d9a5760019050613dd1565b6001600054141515613dab57600080fd5b613dca613db733612293565b60016002613cc09092919063ffffffff16565b9050809150505b90565b613dec8383836002614678909392919063ffffffff16565b808284600019167f480000bb1edad8ca1470381cc334b1917fbd51c6531f3a623ea8e0ec7e38a6e960405160405180910390a4505050565b60008060008060418551141515613e3e5760009350613f0c565b6020850151925060408501519150606085015160001a9050601b8160ff161015613e6957601b810190505b601b8160ff1614158015613e815750601c8160ff1614155b15613e8f5760009350613f0c565b600186828585604051600081526020016040526040518085600019166000191681526020018460ff1660ff1681526020018360001916600019168152602001826000191660001916815260200194505050505060206040516020810390808403906000865af11515613f0057600080fd5b50506020604051035193505b50505092915050565b6000806000613f47856301ffc9a77c0100000000000000000000000000000000000000000000000000000000026146ed565b80925081935050506000821480613f5e5750600081145b15613f6c5760009250613ff4565b613f998563ffffffff7c0100000000000000000000000000000000000000000000000000000000026146ed565b80925081935050506000821480613fb1575060008114155b15613fbf5760009250613ff4565b613fc985856146ed565b8092508193505050600182148015613fe15750600181145b15613fef5760019250613ff4565b600092505b505092915050565b6000828281548110151561400c57fe5b906000526020600020906003020160010154905082600184805490500381548110151561403557fe5b9060005260206000209060030201838381548110151561405157fe5b906000526020600020906003020160008201548160000155600182015481600101556002820154816002019060001916905590505082600184805490500381548110151561409b57fe5b9060005260206000209060030201600080820160009055600182016000905560028201600090555050828054809190600190036140d89190614b1a565b5092915050565b60008060006001871415614270576141016140fb308a876111be565b86611367565b91508173ffffffffffffffffffffffffffffffffffffffff168673ffffffffffffffffffffffffffffffffffffffff1614156141405760019250614275565b3073ffffffffffffffffffffffffffffffffffffffff168673ffffffffffffffffffffffffffffffffffffffff1614806141a657506141a5614180612890565b8773ffffffffffffffffffffffffffffffffffffffff16613f1590919063ffffffff16565b5b15614267578573ffffffffffffffffffffffffffffffffffffffff166313fb4b8f6141d084612293565b60036040518363ffffffff167c010000000000000000000000000000000000000000000000000000000002815260040180836000191660001916815260200182815260200192505050606060405180830381600087803b151561423257600080fd5b5af1151561423f57600080fd5b5050506040518051906020018051906020018051905090505080915050600381149250614275565b60009250614275565b600092505b505095945050505050565b6000806000846000015173ffffffffffffffffffffffffffffffffffffffff16141515156142ad57600080fd5b836000015173ffffffffffffffffffffffffffffffffffffffff168460200151856040015160405180828051906020019080838360005b838110156142ff5780820151818401526020810190506142e4565b50505050905090810190601f16801561432c5780820380516001836020036101000a031916815260200191505b5091505060006040518083038185875af1925050509050801515614414578360200151846000015173ffffffffffffffffffffffffffffffffffffffff16867fe10c49d9f7c71da23262367013434763cfdb2332267641728d25cd712c5c6a6887604001516040518080602001828103825283818151815260200191508051906020019080838360005b838110156143d15780820151818401526020810190506143b6565b50505050905090810190601f1680156143fe5780820380516001836020036101000a031916815260200191505b509250505060405180910390a460009150614566565b8360200151846000015173ffffffffffffffffffffffffffffffffffffffff16867f1f920dbda597d7bf95035464170fa58d0a4b57f13a1c315ace6793b9f63688b887604001516040518080602001828103825283818151815260200191508051906020019080838360005b8381101561449b578082015181840152602081019050614480565b50505050905090810190601f1680156144c85780820380516001836020036101000a031916815260200191505b509250505060405180910390a48215156144e55760019150614566565b60066000868152602001908152602001600020600080820160006101000a81549073ffffffffffffffffffffffffffffffffffffffff0219169055600182016000905560028201600061453891906147c5565b600382016000905550506007600086815260200190815260200160002060006145619190614b4c565b600191505b509392505050565b60008585858585604051808673ffffffffffffffffffffffffffffffffffffffff1673ffffffffffffffffffffffffffffffffffffffff166c010000000000000000000000000281526014018573ffffffffffffffffffffffffffffffffffffffff1673ffffffffffffffffffffffffffffffffffffffff166c0100000000000000000000000002815260140184815260200183805190602001908083835b602083101515614632578051825260208201915060208101905060208303925061460d565b6001836020036101000a03801982511681845116808217855250505050505090500182815260200195505050505050604051809103902060019004905095945050505050565b83805480600101828161468b9190614b1a565b916000526020600020906003020160006060604051908101604052808681526020018581526020018760001916815250909190915060008201518160000155602082015181600101556040820151816002019060001916905550505050505050565b60008060006301ffc9a77c010000000000000000000000000000000000000000000000000000000002905060405181815284600482015260208160208389617530fa93508051925050509250929050565b602060405190810160405280600081525090565b602060405190810160405280600081525090565b60c0604051908101604052806000815260200160008152602001600073ffffffffffffffffffffffffffffffffffffffff1681526020016147a5614b6d565b81526020016147b2614b6d565b81526020016147bf614b81565b81525090565b50805460018160011615610100020316600290046000825580601f106147eb575061480a565b601f0160209004906000526020600020908101906148099190614b95565b5b50565b50805460018160011615610100020316600290046000825580601f106148335750614852565b601f0160209004906000526020600020908101906148519190614b95565b5b50565b81548183558181151161487c5781836000526020600020918201910161487b9190614bba565b5b505050565b8154818355818115116148a8578183600052602060002091820191016148a79190614b95565b5b505050565b828054600181600116156101000203166002900490600052602060002090601f016020900481019282601f106148ee57805160ff191683800117855561491c565b8280016001018555821561491c579182015b8281111561491b578251825591602001919060010190614900565b5b5090506149299190614b95565b5090565b828054600181600116156101000203166002900490600052602060002090601f016020900481019282601f1061496e57805160ff191683800117855561499c565b8280016001018555821561499c579182015b8281111561499b578251825591602001919060010190614980565b5b5090506149a99190614b95565b5090565b828054600181600116156101000203166002900490600052602060002090601f016020900481019282601f106149ee57805160ff1916838001178555614a1c565b82800160010185558215614a1c579182015b82811115614a1b578251825591602001919060010190614a00565b5b509050614a299190614b95565b5090565b828054600181600116156101000203166002900490600052602060002090601f016020900481019282601f10614a6e57805160ff1916838001178555614a9c565b82800160010185558215614a9c579182015b82811115614a9b578251825591602001919060010190614a80565b5b509050614aa99190614b95565b5090565b608060405190810160405280600073ffffffffffffffffffffffffffffffffffffffff16815260200160008152602001614ae5614b6d565b8152602001600081525090565b602060405190810160405280600081525090565b602060405190810160405280600081525090565b815481835581811511614b4757600302816003028360005260206000209182019101614b469190614bdf565b5b505050565b5080546000825590600052602060002090810190614b6a9190614b95565b50565b602060405190810160405280600081525090565b602060405190810160405280600081525090565b614bb791905b80821115614bb3576000816000905550600101614b9b565b5090565b90565b614bdc91905b80821115614bd8576000816000905550600101614bc0565b5090565b90565b614c1391905b80821115614c0f576000808201600090556001820160009055600282016000905550600301614be5565b5090565b905600a165627a7a72305820d567d75956cbdf780b9c2718d58e2718d4cfa72dd7fb488424feefd20e7d4e4c0029",
  "source": "pragma solidity ^0.4.21;\n\nimport \"./Destructible.sol\";\nimport \"./ERC735.sol\";\nimport \"./KeyGetters.sol\";\nimport \"./KeyManager.sol\";\nimport \"./MultiSig.sol\";\nimport \"./ClaimManager.sol\";\n\ncontract Identity is Destructible, KeyManager, KeyGetters, MultiSig, ClaimManager {\n    function Identity(\n        bytes32[] _keys,\n        uint256[] _purposes,\n        uint256[] _keyTypes,\n        uint256 _managementThreshold,\n        uint256 _actionThreshold\n        // TODO: Pass bytes[] signatures, bytes[] data and string[] uris once ABIEncoderV2 is out\n    )\n        public\n    {\n        require(_managementThreshold > 0);\n        require(_actionThreshold > 0);\n        // Validate keys are sorted and unique\n        require(_keys.length == _purposes.length);\n        require(_purposes.length == _keyTypes.length);\n        for (uint i = 1; i < _keys.length; i++) {\n            // Expect input to be in sorted order, first by keys, then by purposes\n            // Sorted order guarantees (key, purpose) pairs are unique and we can use\n            // _addKey insteaad of addKey (which also checks for existance)\n            bytes32 prevKey = _keys[i - 1];\n            require(_keys[i] > prevKey || (_keys[i] == prevKey && _purposes[i] > _purposes[i - 1]));\n        }\n\n        // Supports both ERC 725 & 735\n        supportedInterfaces[ERC725ID() ^ ERC735ID()] = true;\n\n        uint256 actionCount;\n        uint256 managementCount;\n        if (_keys.length == 0) {\n            bytes32 senderKey = addrToKey(msg.sender);\n            // Add key that deployed the contract for MANAGEMENT, ACTION, CLAIM\n            _addKey(senderKey, MANAGEMENT_KEY, ECDSA_TYPE);\n            _addKey(senderKey, ACTION_KEY, ECDSA_TYPE);\n            _addKey(senderKey, CLAIM_SIGNER_KEY, ECDSA_TYPE);\n            actionCount = 1;\n            managementCount = 1;\n        } else {\n            // Add constructor keys\n            for (i = 0; i < _keys.length; i++) {\n                _addKey(_keys[i], _purposes[i], _keyTypes[i]);\n                if (_purposes[i] == MANAGEMENT_KEY) {\n                    managementCount++;\n                } else\n                if (_purposes[i] == ACTION_KEY) {\n                    actionCount++;\n                }\n            }\n        }\n\n        require(_managementThreshold <= managementCount);\n        require(_actionThreshold <= actionCount);\n        managementThreshold = _managementThreshold;\n        actionThreshold = _actionThreshold;\n    }\n\n    // Fallback function accepts Ether transactions\n    function () external payable {\n    }\n}",
  "sourcePath": "/Users/mirceapasoi/src/erc725-735/contracts/Identity.sol",
  "compiler": {
    "name": "solc",
    "version": "0.4.21+commit.dfe3193c.Emscripten.clang"
  },
  "schemaVersion": "2.0.0",
  "updatedAt": "2018-04-12T01:16:11.624Z"
}