{
  "contractName": "KeyBase",
  "abi": [
    {
      "constant": true,
      "inputs": [],
      "name": "actionThreshold",
      "outputs": [
        {
          "name": "",
          "type": "uint256"
        }
      ],
      "payable": false,
      "stateMutability": "view",
      "type": "function"
    },
    {
      "constant": true,
      "inputs": [],
      "name": "managementThreshold",
      "outputs": [
        {
          "name": "",
          "type": "uint256"
        }
      ],
      "payable": false,
      "stateMutability": "view",
      "type": "function"
    },
    {
      "constant": true,
      "inputs": [],
      "name": "numKeys",
      "outputs": [
        {
          "name": "",
          "type": "uint256"
        }
      ],
      "payable": false,
      "stateMutability": "view",
      "type": "function"
    },
    {
      "constant": true,
      "inputs": [
        {
          "name": "addr",
          "type": "address"
        }
      ],
      "name": "addrToKey",
      "outputs": [
        {
          "name": "",
          "type": "bytes32"
        }
      ],
      "payable": false,
      "stateMutability": "pure",
      "type": "function"
    }
  ],
  "bytecode": "0x6060604052600160005560018055341561001857600080fd5b61019f806100276000396000f300606060405260043610610062576000357c0100000000000000000000000000000000000000000000000000000000900463ffffffff16806338f4edd41461006757806363f14c3c14610090578063aa0a5142146100e5578063c9d24ecc1461010e575b600080fd5b341561007257600080fd5b61007a610137565b6040518082815260200191505060405180910390f35b341561009b57600080fd5b6100c7600480803573ffffffffffffffffffffffffffffffffffffffff1690602001909190505061013d565b60405180826000191660001916815260200191505060405180910390f35b34156100f057600080fd5b6100f8610160565b6040518082815260200191505060405180910390f35b341561011957600080fd5b610121610166565b6040518082815260200191505060405180910390f35b60015481565b60008173ffffffffffffffffffffffffffffffffffffffff166001029050919050565b60005481565b60006002805490509050905600a165627a7a72305820fcdf987bb209dd1470d6784d051d3127cbdd399224e57fa2590f003f7f5bb6d10029",
  "source": "pragma solidity ^0.4.21;\n\nimport \"./KeyArray.sol\";\n\ncontract KeyBase {\n    uint256 constant MANAGEMENT_KEY = 1;\n\n    // For multi-sig\n    uint256 public managementThreshold = 1;\n    uint256 public actionThreshold = 1;\n\n    // Store keys in an array\n    using KeyArray for KeyArray.Key[];\n    KeyArray.Key[] allKeys;\n\n    function _managementOrSelf()\n        internal\n        view\n        returns (bool found)\n    {\n        if (msg.sender == address(this)) {\n            // Identity contract itself\n            return true;\n        }\n        // Only works with 1 key threshold, otherwise need multi-sig\n        require(managementThreshold == 1);\n        (, found) = allKeys.find(addrToKey(msg.sender), MANAGEMENT_KEY);\n    }\n\n    modifier onlyManagementOrSelf {\n        // MUST only be done by keys of purpose 1, or the identity itself\n        require(_managementOrSelf());\n        _;\n    }\n\n    // Helper function\n    function numKeys()\n        external\n        view\n        returns (uint)\n    {\n        return allKeys.length;\n    }\n\n    function addrToKey(address addr)\n        public\n        pure\n        returns (bytes32)\n    {\n        return bytes32(addr);\n    }\n}\n",
  "sourcePath": "/Users/mirceapasoi/src/erc725-735/contracts/KeyBase.sol",
  "compiler": {
    "name": "solc",
    "version": "0.4.21+commit.dfe3193c.Emscripten.clang"
  },
  "schemaVersion": "2.0.0",
  "updatedAt": "2018-04-12T01:16:11.627Z"
}