{
  "contractName": "KeyGetters",
  "abi": [
    {
      "constant": true,
      "inputs": [],
      "name": "actionThreshold",
      "outputs": [
        {
          "name": "",
          "type": "uint256"
        }
      ],
      "payable": false,
      "stateMutability": "view",
      "type": "function"
    },
    {
      "constant": true,
      "inputs": [
        {
          "name": "addr",
          "type": "address"
        }
      ],
      "name": "addrToKey",
      "outputs": [
        {
          "name": "",
          "type": "bytes32"
        }
      ],
      "payable": false,
      "stateMutability": "pure",
      "type": "function"
    },
    {
      "constant": true,
      "inputs": [],
      "name": "managementThreshold",
      "outputs": [
        {
          "name": "",
          "type": "uint256"
        }
      ],
      "payable": false,
      "stateMutability": "view",
      "type": "function"
    },
    {
      "constant": true,
      "inputs": [],
      "name": "numKeys",
      "outputs": [
        {
          "name": "",
          "type": "uint256"
        }
      ],
      "payable": false,
      "stateMutability": "view",
      "type": "function"
    },
    {
      "constant": true,
      "inputs": [
        {
          "name": "_key",
          "type": "bytes32"
        },
        {
          "name": "_purpose",
          "type": "uint256"
        }
      ],
      "name": "getKey",
      "outputs": [
        {
          "name": "purpose",
          "type": "uint256"
        },
        {
          "name": "keyType",
          "type": "uint256"
        },
        {
          "name": "key",
          "type": "bytes32"
        }
      ],
      "payable": false,
      "stateMutability": "view",
      "type": "function"
    },
    {
      "constant": true,
      "inputs": [
        {
          "name": "_key",
          "type": "bytes32"
        }
      ],
      "name": "getKeyPurpose",
      "outputs": [
        {
          "name": "purpose",
          "type": "uint256[]"
        }
      ],
      "payable": false,
      "stateMutability": "view",
      "type": "function"
    },
    {
      "constant": true,
      "inputs": [
        {
          "name": "_purpose",
          "type": "uint256"
        }
      ],
      "name": "getKeysByPurpose",
      "outputs": [
        {
          "name": "keys",
          "type": "bytes32[]"
        }
      ],
      "payable": false,
      "stateMutability": "view",
      "type": "function"
    }
  ],
  "bytecode": "0x6060604052600160005560018055341561001857600080fd5b610681806100276000396000f300606060405260043610610083576000357c0100000000000000000000000000000000000000000000000000000000900463ffffffff168063032c1a8a1461008857806313fb4b8f1461010457806338f4edd41461015e57806363f14c3c146101875780639010f726146101dc578063aa0a514214610254578063c9d24ecc1461027d575b600080fd5b341561009357600080fd5b6100ad6004808035600019169060200190919050506102a6565b6040518080602001828103825283818151815260200191508051906020019060200280838360005b838110156100f05780820151818401526020810190506100d5565b505050509050019250505060405180910390f35b341561010f57600080fd5b6101326004808035600019169060200190919080359060200190919050506103cb565b604051808481526020018381526020018260001916600019168152602001935050505060405180910390f35b341561016957600080fd5b610171610437565b6040518082815260200191505060405180910390f35b341561019257600080fd5b6101be600480803573ffffffffffffffffffffffffffffffffffffffff1690602001909190505061043d565b60405180826000191660001916815260200191505060405180910390f35b34156101e757600080fd5b6101fd6004808035906020019091905050610460565b6040518080602001828103825283818151815260200191508051906020019060200280838360005b83811015610240578082015181840152602081019050610225565b505050509050019250505060405180910390f35b341561025f57600080fd5b61026761057f565b6040518082815260200191505060405180910390f35b341561028857600080fd5b610290610585565b6040518082815260200191505060405180910390f35b6102ae61062d565b60008060009150600090505b60028054905081101561030d5783600019166002828154811015156102db57fe5b9060005260206000209060030201600201546000191614156103005781806001019250505b80806001019150506102ba565b8160405180591061031b5750595b90808252806020026020018201604052509250600090508091505b6002805490508110156103c457836000191660028281548110151561035757fe5b9060005260206000209060030201600201546000191614156103b75760028181548110151561038257fe5b90600052602060002090600302016000015483838060010194508151811015156103a857fe5b90602001906020020181815250505b8080600101915050610336565b5050919050565b6000806000806000806103ea888860026105929092919063ffffffff16565b8093508194505050811561042d5760028381548110151561040757fe5b906000526020600020906003020190508060000154955080600101549450806002015493505b5050509250925092565b60015481565b60008173ffffffffffffffffffffffffffffffffffffffff166001029050919050565b610468610641565b60008060009150600090505b6002805490508110156104bf578360028281548110151561049157fe5b90600052602060002090600302016000015414156104b25781806001019250505b8080600101915050610474565b816040518059106104cd5750595b90808252806020026020018201604052509250600090508091505b600280549050811015610578578360028281548110151561050557fe5b906000526020600020906003020160000154141561056b5760028181548110151561052c57fe5b906000526020600020906003020160020154838380600101945081518110151561055257fe5b9060200190602002019060001916908160001916815250505b80806001019150506104e8565b5050919050565b60005481565b6000600280549050905090565b60008060008090505b858054905081101561061957846000191686828154811015156105ba57fe5b906000526020600020906003020160020154600019161480156105fb57508386828154811015156105e757fe5b906000526020600020906003020160000154145b1561060c5780600192509250610624565b808060010191505061059b565b600080819150925092505b50935093915050565b602060405190810160405280600081525090565b6020604051908101604052806000815250905600a165627a7a72305820605b46a50069952df7fe856b27b2ad95a7eec436f34cc9d711ad18dc34cdfb1f0029",
  "source": "pragma solidity ^0.4.21;\n\nimport \"./KeyBase.sol\";\n\ncontract KeyGetters is KeyBase {\n    function getKey(bytes32 _key, uint256 _purpose)\n        public\n        view\n        returns(uint256 purpose, uint256 keyType, bytes32 key)\n    {\n        uint index;\n        bool found;\n        (index, found) = allKeys.find(_key, _purpose);\n        if (found) {\n            KeyArray.Key storage k = allKeys[index];\n            purpose = k.purpose;\n            keyType = k.keyType;\n            key = k.key;\n        }\n    }\n\n    function getKeyPurpose(bytes32 _key)\n        public\n        view\n        returns(uint256[] purpose)\n    {\n        uint count = 0;\n        for (uint i = 0; i < allKeys.length; i++) {\n            if (allKeys[i].key == _key) {\n                count++;\n            }\n        }\n        purpose = new uint256[](count);\n        for (count = i = 0; i < allKeys.length; i++) {\n            if (allKeys[i].key == _key) {\n                purpose[count++] = allKeys[i].purpose;\n            }\n        }\n    }\n\n    function getKeysByPurpose(uint256 _purpose)\n        public\n        view\n        returns(bytes32[] keys)\n    {\n        uint count = 0;\n        for (uint i = 0; i < allKeys.length; i++) {\n            if (allKeys[i].purpose == _purpose) {\n                count++;\n            }\n        }\n        keys = new bytes32[](count);\n        for (count = i = 0; i < allKeys.length; i++) {\n            if (allKeys[i].purpose == _purpose) {\n                keys[count++] = allKeys[i].key;\n            }\n        }\n    }\n\n}",
  "sourcePath": "/Users/mirceapasoi/src/erc725-735/contracts/KeyGetters.sol",
  "compiler": {
    "name": "solc",
    "version": "0.4.21+commit.dfe3193c.Emscripten.clang"
  },
  "schemaVersion": "2.0.0",
  "updatedAt": "2018-04-12T01:16:11.627Z"
}