{
  "contractName": "Pausable",
  "abi": [
    {
      "constant": true,
      "inputs": [],
      "name": "actionThreshold",
      "outputs": [
        {
          "name": "",
          "type": "uint256"
        }
      ],
      "payable": false,
      "stateMutability": "view",
      "type": "function"
    },
    {
      "constant": true,
      "inputs": [],
      "name": "paused",
      "outputs": [
        {
          "name": "",
          "type": "bool"
        }
      ],
      "payable": false,
      "stateMutability": "view",
      "type": "function"
    },
    {
      "constant": true,
      "inputs": [
        {
          "name": "addr",
          "type": "address"
        }
      ],
      "name": "addrToKey",
      "outputs": [
        {
          "name": "",
          "type": "bytes32"
        }
      ],
      "payable": false,
      "stateMutability": "pure",
      "type": "function"
    },
    {
      "constant": true,
      "inputs": [],
      "name": "managementThreshold",
      "outputs": [
        {
          "name": "",
          "type": "uint256"
        }
      ],
      "payable": false,
      "stateMutability": "view",
      "type": "function"
    },
    {
      "constant": true,
      "inputs": [],
      "name": "numKeys",
      "outputs": [
        {
          "name": "",
          "type": "uint256"
        }
      ],
      "payable": false,
      "stateMutability": "view",
      "type": "function"
    },
    {
      "anonymous": false,
      "inputs": [],
      "name": "Pause",
      "type": "event"
    },
    {
      "anonymous": false,
      "inputs": [],
      "name": "Unpause",
      "type": "event"
    },
    {
      "constant": false,
      "inputs": [],
      "name": "pause",
      "outputs": [],
      "payable": false,
      "stateMutability": "nonpayable",
      "type": "function"
    },
    {
      "constant": false,
      "inputs": [],
      "name": "unpause",
      "outputs": [],
      "payable": false,
      "stateMutability": "nonpayable",
      "type": "function"
    }
  ],
  "bytecode": "0x60606040526001600055600180556000600360006101000a81548160ff021916908315150217905550341561003357600080fd5b61042d806100426000396000f300606060405260043610610083576000357c0100000000000000000000000000000000000000000000000000000000900463ffffffff16806338f4edd4146100885780633f4ba83a146100b15780635c975abb146100c657806363f14c3c146100f35780638456cb5914610148578063aa0a51421461015d578063c9d24ecc14610186575b600080fd5b341561009357600080fd5b61009b6101af565b6040518082815260200191505060405180910390f35b34156100bc57600080fd5b6100c46101b5565b005b34156100d157600080fd5b6100d961022c565b604051808215151515815260200191505060405180910390f35b34156100fe57600080fd5b61012a600480803573ffffffffffffffffffffffffffffffffffffffff1690602001909190505061023f565b60405180826000191660001916815260200191505060405180910390f35b341561015357600080fd5b61015b610262565b005b341561016857600080fd5b6101706102da565b6040518082815260200191505060405180910390f35b341561019157600080fd5b6101996102e0565b6040518082815260200191505060405180910390f35b60015481565b6101bd6102ed565b15156101c857600080fd5b600360009054906101000a900460ff1615156101e357600080fd5b6000600360006101000a81548160ff0219169083151502179055507f7805862f689e2f13df9f062ff482ad3ad112aca9e0847911ed832e158c525b3360405160405180910390a1565b600360009054906101000a900460ff1681565b60008173ffffffffffffffffffffffffffffffffffffffff166001029050919050565b61026a6102ed565b151561027557600080fd5b600360009054906101000a900460ff1615151561029157600080fd5b6001600360006101000a81548160ff0219169083151502179055507f6985a02210a168e66602d3235cb6db0e70f92b3ba4d376a33c0f3d9434bff62560405160405180910390a1565b60005481565b6000600280549050905090565b60003073ffffffffffffffffffffffffffffffffffffffff163373ffffffffffffffffffffffffffffffffffffffff16141561032c5760019050610363565b600160005414151561033d57600080fd5b61035c6103493361023f565b600160026103669092919063ffffffff16565b9050809150505b90565b60008060008090505b85805490508110156103ed578460001916868281548110151561038e57fe5b906000526020600020906003020160020154600019161480156103cf57508386828154811015156103bb57fe5b906000526020600020906003020160000154145b156103e057806001925092506103f8565b808060010191505061036f565b600080819150925092505b509350939150505600a165627a7a723058205d771cd0ca3d8e2b10ad21233c0c51191470f6544d61389b0e9ca988d4f214950029",
  "source": "pragma solidity ^0.4.21;\n\nimport \"./KeyBase.sol\";\n\ncontract Pausable is KeyBase {\n  event Pause();\n  event Unpause();\n\n  bool public paused = false;\n\n  /// @dev Modifier to make a function callable only when the contract is not paused.\n  modifier whenNotPaused() {\n    require(!paused);\n    _;\n  }\n\n  /// @dev Modifier to make a function callable only when the contract is paused.\n  modifier whenPaused() {\n    require(paused);\n    _;\n  }\n\n  /// @dev called by the owner to pause, triggers stopped state\n  function pause()\n    onlyManagementOrSelf\n    whenNotPaused\n    public\n  {\n    paused = true;\n    emit Pause();\n  }\n\n   /// @dev called by the owner to unpause, returns to normal state\n  function unpause()\n    onlyManagementOrSelf\n    whenPaused\n    public\n  {\n    paused = false;\n    emit Unpause();\n  }\n}\n",
  "sourcePath": "/Users/mirceapasoi/src/erc725-735/contracts/Pausable.sol",
  "compiler": {
    "name": "solc",
    "version": "0.4.21+commit.dfe3193c.Emscripten.clang"
  },
  "schemaVersion": "2.0.0",
  "updatedAt": "2018-04-12T01:16:11.631Z"
}