{
  "contractName": "TestContract",
  "abi": [
    {
      "constant": true,
      "inputs": [
        {
          "name": "",
          "type": "address"
        }
      ],
      "name": "numCalls",
      "outputs": [
        {
          "name": "",
          "type": "uint256"
        }
      ],
      "payable": false,
      "stateMutability": "view",
      "type": "function"
    },
    {
      "inputs": [],
      "payable": false,
      "stateMutability": "nonpayable",
      "type": "constructor"
    },
    {
      "anonymous": false,
      "inputs": [
        {
          "indexed": false,
          "name": "data",
          "type": "bytes32"
        }
      ],
      "name": "IdentityCalled",
      "type": "event"
    },
    {
      "constant": false,
      "inputs": [],
      "name": "callMe",
      "outputs": [],
      "payable": false,
      "stateMutability": "nonpayable",
      "type": "function"
    },
    {
      "constant": false,
      "inputs": [],
      "name": "whoCalling",
      "outputs": [],
      "payable": false,
      "stateMutability": "nonpayable",
      "type": "function"
    }
  ],
  "bytecode": "0x6060604052341561000f57600080fd5b6104028061001e6000396000f300606060405260043610610057576000357c0100000000000000000000000000000000000000000000000000000000900463ffffffff1680630d26cf7f1461005c578063840f724914610071578063b0bea725146100be575b600080fd5b341561006757600080fd5b61006f6100d3565b005b341561007c57600080fd5b6100a8600480803573ffffffffffffffffffffffffffffffffffffffff16906020019091905050610237565b6040518082815260200191505060405180910390f35b34156100c957600080fd5b6100d161024f565b005b60008061012263107653797c0100000000000000000000000000000000000000000000000000000000023373ffffffffffffffffffffffffffffffffffffffff1661029e90919063ffffffff16565b151561012d57600080fd5b3391508173ffffffffffffffffffffffffffffffffffffffff1663b98865b9600560006040518363ffffffff167c0100000000000000000000000000000000000000000000000000000000028152600401808381526020018281526020019250505060c060405180830381600087803b15156101a857600080fd5b5af115156101b557600080fd5b5050506040518051906020018051906020018051906020018051906020018051906020018051905090919293945090919293509091925090915050809150507ff8d369b892b4dfcaf7236e37ba913bb347720e41be2e16efd97ceea6a3f6eeac8160405180826000191660001916815260200191505060405180910390a15050565b60006020528060005260406000206000915090505481565b60016000803373ffffffffffffffffffffffffffffffffffffffff1673ffffffffffffffffffffffffffffffffffffffff16815260200190815260200160002060008282540192505081905550565b60008060006102d0856301ffc9a77c010000000000000000000000000000000000000000000000000000000002610385565b809250819350505060008214806102e75750600081145b156102f5576000925061037d565b6103228563ffffffff7c010000000000000000000000000000000000000000000000000000000002610385565b8092508193505050600082148061033a575060008114155b15610348576000925061037d565b6103528585610385565b809250819350505060018214801561036a5750600181145b15610378576001925061037d565b600092505b505092915050565b60008060006301ffc9a77c010000000000000000000000000000000000000000000000000000000002905060405181815284600482015260208160208389617530fa935080519250505092509290505600a165627a7a72305820e80b1c33afb2b6b028f437b241825856c32d4636f3f0d459290caac0624f95b70029",
  "source": "pragma solidity ^0.4.21;\n\nimport \"./ERC165Query.sol\";\nimport \"./ERC735.sol\";\n\ncontract TestContract {\n    using ERC165Query for address;\n\n    event IdentityCalled(bytes32 data);\n    mapping (address => uint) public numCalls;\n\n    function TestContract() public {\n    }\n\n    function callMe() external {\n        numCalls[msg.sender] += 1;\n    }\n\n    function whoCalling() external {\n        // ERC735\n        require(msg.sender.doesContractImplementInterface(0x10765379));\n        // Get first LABEL claim\n        ERC735 id = ERC735(msg.sender);\n        // TODO: Wait until Solidity 0.4.22 is out to call getClaimIdsByType and getClaim\n        // https://github.com/ethereum/solidity/issues/3270\n        bytes32 data;\n        (, , , , data, ) = id.getClaimByTypeAndIndex(5, 0);\n        emit IdentityCalled(data);\n    }\n}\n",
  "sourcePath": "/Users/mirceapasoi/src/erc725-735/contracts/TestContract.sol",
  "compiler": {
    "name": "solc",
    "version": "0.4.21+commit.dfe3193c.Emscripten.clang"
  },
  "schemaVersion": "2.0.0",
  "updatedAt": "2018-04-12T01:16:11.632Z"
}